:100000000C947C010C94A4010C94A4010C942D1B61
:100010000C94A4010C940B1E0C94A4010C94A40148
:100020000C94A4010C94A4010C94A4010C94A401BC
:100030000C94A4010C94A4010C94A4010C94A401AC
:100040000C94C4190C94A4010C9492190C946C197E
:100050000C94A4010C94A4010C94A4010C94A4018C
:100060000C940E1A0C94A4015B6173796E635D208D
:100070003A204D617820746F7271756520004C696B
:100080006D6974656420005B6173796E635D203A0D
:10009000204D617820746F7271756520005B61730B
:1000A000796E635D203A204C696D69746564200047
:1000B0005B6173796E635D203A204455414C005B6F
:1000C0006173796E635D203A204D4153544552204F
:1000D000534C4156450063757272656E7420706FA3
:1000E000732000706F732000747970652000737442
:1000F00061746520006C696D69745F746F727175ED
:10010000655F636C6F736520006C696D69745F7403
:100110006F727175655F6F70656E20006C696D69D7
:10012000745F706F735F636C6F736520006C696DD3
:1001300069745F706F735F6F70656E2000696E76B3
:10014000657274656420006C696D69746564206310
:100150006C6F736520006C696D69746564206F70E5
:10016000656E20006C696D6974656420746F7271CE
:10017000756520636C6F736520006C696D697465CB
:100180006420746F72717565206F70656E20000059
:100190005EBCE2613FDD83C29C7E20A3FD1F410067
:1001A0009D23BE46DB65F88C11AF32CA57E9740057
:1001B000000000240027002A00000000002500287D
:1001C000002B0000000008000201000003040700EB
:1001D0000000000000000048454C4C4F005B61737C
:1001E000796E635D203A2070726573736564206C6C
:1001F0006F6E672073746F70005B6173796E635DFF
:10020000203A20707265737365642073746F700098
:100210005B6173796E635D203A20707265737365FC
:1002200064207570005B6173796E635D203A2070A5
:1002300072657373656420646F776E005B617379B8
:100240006E635D203A20534D414C4C004552524F55
:1002500052004F4B002064656C746120005B617339
:10026000796E635D203A2070617573696E67200056
:100270002064656C746120005B6173796E635D203E
:100280003A20636C6F73696E6720002064656C743C
:100290006120005B6173796E635D203A206F706549
:1002A0006E696E6720005B6173796E635D203A2032
:1002B00048414C4C204552524F522053544F5050BD
:1002C000494E2000000000002300260029000404FD
:1002D00004040404040402020202020203030303EE
:1002E00003030102040810204080010204081020CA
:1002F000010204081020BE2011241FBECFEFD8E059
:10030000DEBFCDBF26E0AAE8B2E001C01D92A8374B
:10031000B207E1F712E0A0E0B1E0E4E3F3E602C0E7
:1003200005900D92AA38B107D9F711E0CCE7D1E0DA
:1003300004C02197FE010E94642FCB37D107C9F773
:100340000E94FF200C9498310C940000E1E2F5E04B
:1003500080E09191892795E0EF36F907D1F78095F4
:100360000895089508950895AF92BF92CF92DF92B5
:10037000EF92FF920F931F93CF93DF936C017B015A
:100380008B01040F151FEB015E01AE18BF08C017EB
:10039000D10759F06991D601ED91FC910190F0815E
:1003A000E02DC6010995892B79F7C501DF91CF9121
:1003B0001F910F91FF90EF90DF90CF90BF90AF9083
:1003C0000895FC01538D448D252F30E0842F90E05B
:1003D000821B930B541710F0CF9608950197089540
:1003E000FC01918D828D981761F0A28DAE0FBF2F09
:1003F000B11D5D968C91928D9F5F9F73928F90E05F
:1004000008958FEF9FEF0895FC01918D828D9817CD
:1004100031F0828DE80FF11D858D90E008958FEF0A
:100420009FEF0895FC01918D228D892F90E0805CD3
:100430009F4F821B91098F739927089582EC95E055
:100440000E94120221E0892B09F420E0822F0895F6
:1004500080E090E0892B29F00E941E0281110C940B
:1004600000000895FC01A48DA80FB92FB11DA35A57
:10047000BF4F2C91848D90E001968F739927848FC4
:10048000A689B7892C93A089B1898C9183708064E7
:100490008C93938D848D981306C00288F389E02D88
:1004A00080818F7D80830895EF92FF920F931F9339
:1004B000CF93DF93EC0181E0888F9B8D8C8D981317
:1004C0001AC0E889F989808185FF15C09FB7F89423
:1004D000EE89FF896083E889F9898081837080646F
:1004E00080839FBF81E090E0DF91CF911F910F91BA
:1004F000FF90EF900895F62E0B8D10E00F5F1F4FC9
:100500000F731127E02E8C8D8E110CC00FB607FCD7
:10051000FACFE889F989808185FFF5CFCE010E9465
:100520003202F1CFEB8DEC0FFD2FF11DE35AFF4F9F
:10053000F0829FB7F8940B8FEA89FB8980818062F3
:10054000CFCF0F931F93CF93DF938C01D0E0C0E008
:10055000F801EC0FFD1F6491662341F082EC95E0F9
:100560000E945402892B11F02196F2CFCE01DF9127
:10057000CF911F910F910895CF93DF93EC01888D58
:100580008823B9F0AA89BB89E889F9898C9185FD0E
:1005900003C0808186FD0DC00FB607FCF7CF8C919C
:1005A00085FFF2CF808185FFEDCFCE010E94320220
:1005B000E9CFDF91CF910895833081F028F4813025
:1005C00099F08230A9F008958730A9F08830C9F0F9
:1005D0008430B1F4809180008F7D03C080918000D1
:1005E0008F7780938000089584B58F7784BD0895B8
:1005F00084B58F7DFBCF8091B0008F778093B00062
:1006000008958091B0008F7DF9CFCF93DF93282F8D
:1006100030E0F901ED53FE4F8491F901EE51FD4FA9
:10062000D491F901E253FD4FC491CC23A1F0811183
:100630000E94DC02EC2FF0E0EE0FFF1FEC53FD4FA9
:10064000A591B491EC91ED2381E090E009F480E074
:10065000DF91CF91089580E090E0FACF1F93CF9380
:10066000DF93282F30E0F901ED53FE4F8491F9011B
:10067000EE51FD4FD491F901E253FD4FC491CC23CB
:10068000A9F0162F81110E94DC02EC2FF0E0EE0F92
:10069000FF1FE754FE4FA591B4918FB7F894EC91EA
:1006A000111108C0D095DE23DC938FBFDF91CF916D
:1006B0001F910895DE2BF8CFCF93DF9390E0FC01DC
:1006C000EE51FD4F249182539D4FFC01849188236C
:1006D000C9F090E0880F991FFC01E155FE4FA591EC
:1006E000B491FC01E754FE4FC591D49161110DC046
:1006F0009FB7F8948C91209582238C93888128232E
:1007000028839FBFDF91CF910895623051F49FB746
:10071000F8943C91822F809583238C93E8812E2B33
:10072000EFCF8FB7F894EC912E2B2C938FBFEACF9D
:10073000CF93DF93EC0162E089E00E945C03EBEE73
:10074000F2E0E491E883E7EDF2E0E491F0E0EE0F0F
:10075000FF1FEC53FD4F859194919A8389831B86EB
:100760001D861C861A86198618861F821E821D8287
:100770001C821B82DF91CF9108953FB7F89480913E
:10078000F9029091FA02A091FB02B091FC0226B509
:10079000A89B05C02F3F19F00196A11DB11D3FBFB9
:1007A000BA2FA92F982F8827BC01CD01620F711D88
:1007B000811D911D42E0660F771F881F991F4A9582
:1007C000D1F708958F929F92AF92BF92CF92DF920E
:1007D000EF92FF924B015C010E94BD036B017C0113
:1007E0000E94BD036C197D098E099F09683E734004
:1007F00081059105A8F321E0821A9108A108B108AA
:1008000088EEC80E83E0D81EE11CF11C811491040F
:10081000A104B10429F7FF90EF90DF90CF90BF9033
:10082000AF909F908F9008952FB7F8946091F50244
:100830007091F6028091F7029091F8022FBF08950F
:10084000DC0180E0615090F09D919827E92FEF70D6
:10085000F0E0E157FE4F2491E92FE295EF70F0E0D0
:10086000E156FE4FE491822F8E27ECCF0895DC01F4
:100870002C911196ED91FC91F8948181822B8183CA
:100880009281322F30959323928387E090E00197F5
:10089000F1F781818323818383E290E00197F1F76F
:1008A00090817894EFECF0E03197F1F7922381E0BA
:1008B00009F480E00895FC0190810180F281E02D2F
:1008C000292F209560FF14C0F894828182238283AF
:1008D0008181892B8183A3E2B0E01197F1F78281B6
:1008E000982B9283789487ED90E00197F1F7089523
:1008F000F8948281822382838181892B8183AFEF67
:10090000B0E01197F1F78281982B928378948FE071
:1009100090E0EBCFDF92EF92FF920F931F93CF9374
:10092000DF93EC01D62EE42E08E010E0FF24F394D0
:1009300061E08D2D8F2109F460E0CE010E945B04FF
:10094000FF0C01501109A1F7E11010C0F894E981E2
:10095000FA8191818881809589238183E981FA8157
:10096000928188818095892382837894DF91CF91C9
:100970001F910F91FF90EF90DF900895FC019081FF
:100980000180F281E02DF8948181292F2095822326
:10099000818378943DE743E050E0315029F1DA015A
:1009A0001197F1F780818923C1F3F8948281822322
:1009B00082838181892B81837894ABE7B7E011979B
:1009C000F1F7F894818182238183A3E1B1E011974B
:1009D000F1F78081982381E009F080E07894E3E6E4
:1009E000F6E03197F1F7089580E008952091D10263
:1009F000260F3327331F21323105ECF42091960561
:100A0000FC0190E080E0243069F082E00895A0913C
:100A1000D1022191AC014F545D4FA40FB52FB11DF0
:100A20002C930196861798F38091D102680F6093FA
:100A3000D10280E0089581E008951092960581E04A
:100A4000809395051092900561E082E10E942E034B
:100A500061E083E10E942E03E9EBF0E080818E7F6C
:100A6000808380818D7F808388E48093B80085E4D3
:100A70008093BC000895CF93DF9391E09093B002F0
:100A80008823B9F0C091B800D091BA008091BC0021
:100A90008A7B8093BC0060E082E10E942E0360E0CC
:100AA00083E10E942E030E941D05D093BA00C093DB
:100AB000B800DF91CF9108950895E0919D05809150
:100AC0009C05E81730F4F0E0E256FA4F808190E0A0
:100AD00008958FEF9FEF089590919D0580919C055B
:100AE0002FEF3FEF981748F4E92FF0E0E256FA4F66
:100AF000208130E09F5F90939D05C901089580910A
:100B00009C0590919D05891B990B0895CF92DF92CA
:100B1000EF92FF920F931F93CF93DF937C01CB0152
:100B20008A012091C105222389F0EB016B01C40EDB
:100B3000D51ECC15DD0569F06991D701ED91FC91C9
:100B40000190F081E02DC7010995F3CF642F0E9439
:100B5000F604C801DF91CF911F910F91FF90EF90A4
:100B6000DF90CF900895CF93DF931F92CDB7DEB77C
:100B700069832091C1052223F9F02091BE0520321E
:100B800058F021E030E0FC013383228390E080E0E4
:100B90000F90DF91CF9108958091BF05E82FF0E08D
:100BA000E057FD4F998190838F5F8093BF058093BD
:100BB000BE0581E090E0ECCF61E0CE0101960E949D
:100BC000F604F7CFCF92DF92EF92FF920F931F932D
:100BD000CF93DF93D091BE0581E0D13208F09CC065
:100BE000C091C0050E94BD036B017C0180919605F8
:100BF00081116CC082E08093960581E08093950519
:100C00008FEF8093940510929305D0939205A0E9FD
:100C1000B2E0E0E7F5E080E0D8138DC010929105D6
:100C200080919105CC0FC82BC093910580919005C0
:100C3000813009F084C0109290050E94BD036B01C1
:100C40007C01809191058093BB00809198059091E3
:100C50009905A0919A05B0919B05892B8A2B8B2B26
:100C6000A1F00E94BD030091980510919905209173
:100C70009A0530919B056C197D098E099F0906170D
:100C800017072807390708F442C08091BC0083FD8C
:100C9000D8CF85EC8093BC000E94BD036B017C0122
:100CA00080919605823009F44CC0809194058F3F65
:100CB00009F469C080919405803209F466C080917E
:100CC0009405803309F463C084E026C080919805C0
:100CD00090919905A0919A05B0919B05892B8A2B3B
:100CE0008B2B09F483CF0E94BD03009198051091CE
:100CF000990520919A0530919B056C197D098E0903
:100D00009F09061717072807390708F06FCF80914A
:100D100097050E943B0585E01092BF051092BE0525
:100D20001092C105DF91CF911F910F91FF90EF902D
:100D3000DF90CF9008959D9191938F5F6DCF85EE59
:100D4000A9CF8091980590919905A0919A05B091AD
:100D50009B05892B8A2B8B2B09F4A2CF0E94BD0304
:100D6000009198051091990520919A0530919B0565
:100D70006C197D098E099F0906171707280739077F
:100D800008F08ECFC4CF80E0C7CF82E0C5CF83E02C
:100D9000C3CF1F93CF93DF93162FCBE6D6E0A98165
:100DA000BA81988121E02093C1059093C0051092EB
:100DB000BF051092BE05ED91FC9111970190F08155
:100DC000E02D682FCD01099589819A81DC01ED9193
:100DD000FC910190F081E02D612F099589819A8124
:100DE000DF91CF911F910C94E20590E080E008958F
:100DF000DC01ED91FC910190F081E02D09940F93BD
:100E00001F93CF93DF938B01CBE6D6E0A981BA8104
:100E1000988121E02093C1059093C0051092BF05F1
:100E20001092BE0594E0899FB00111246A5F7F4F44
:100E3000ED91FC9111970190F081E02DCD01099584
:100E400070E060E089819A810E94F80670E060E0BD
:100E500089819A810E94F806B80189819A810E944D
:100E6000F806612F70E089819A810E94F8068981D5
:100E70009A81DF91CF911F910F910C94E20527E2A7
:100E8000829FD0011124AF5DBA4F91E090969C9360
:100E900090972CE3829FF0011124ED55FB4F478D75
:100EA00050A161A172A14D525109610971091A96AF
:100EB0004D935D936D937C931D97478D50A161A1D8
:100EC00072A14D52510961097109478350876187A9
:100ED000728792969C9384E083A3089597E2899FFA
:100EE000D0011124AF5DBA4F91E05F969C935F975C
:100EF00091969C9391979CE3899FF0011124ED5565
:100F0000FB4F478D50A161A172A1435D5F4F6F4FB1
:100F10007F4F16964D935D936D937C931997878DB4
:100F200090A1A1A1B2A18D96A11DB11D838394832F
:100F3000A583B68382E083A308959CE3899FD001B3
:100F40001124AD55BB4F5F964D915D916D917C9194
:100F5000929797E2899FF0011124EF5DFA4F428743
:100F60005387648775875F964D915D916D917C91F4
:100F7000929717964D935D936D937C931A9781E0AA
:100F800080A384E093968C9308959CE3899FD0017D
:100F90001124AD55BB4F5F964D915D916D917C9144
:100FA000929797E2899FF0011124EF5DFA4F4683F3
:100FB00057836087718781E0878F5F964D915D9140
:100FC0006D917C91929713964D935D936D937C9365
:100FD000169782E093968C93089527E2829FD00122
:100FE0001124AF5DBA4F5E969C915E972CE3829F71
:100FF000F0011124ED55FB4F91AF16964D915D9187
:101000006D917C91199743835483658376831A96F7
:101010004D915D916D917C911D97478350876187BC
:1010200072871E964D915D916D917C91519743878A
:1010300054876587768752964D915D916D917C912D
:1010400055974787508B618B728B12968D919D912E
:101050000D90BC91A02D878F90A3A1A3B2A308955A
:101060008F929F92AF92BF92CF92DF92EF92FF92B8
:101070000F931F93CF93DF939CE3899FF00111247B
:10108000ED55FB4F278D30A141A152A1C82FD0E0D3
:1010900097E2899FF0011124EF5DFA4F01A1C6800C
:1010A000D780E084F184002329F08DE2C80ED11CA2
:1010B000E11CF11C87E28C9FF0018D9FF00D112443
:1010C000EF5DFA4F12A182849384A484B584112326
:1010D00029F09DE2891A9108A108B1082819390957
:1010E0004A095B09A4E6B0E00E945B2DA7019601C6
:1010F000281939094A095B0957FF07C050954095DF
:10110000309521953F4F4F4F5F4F0E94452F8CE305
:101110008C9FF0018D9FF00D1124ED55FB4F90A594
:1011200081A50023A1F067E26C9FF0016D9FF00D97
:101130001124EF5DFA4FE081F0E0EE0FFF1FE35F57
:10114000FE4F608171819617170609F0A0F51123F3
:10115000A1F097E29C9FF0019D9FF00D1124EF5D9F
:10116000FA4FE081F0E0EE0FFF1FE35FFE4F60817A
:1011700071818617170609F0D0F457FD18C0DA01FF
:10118000C90185369105A105B10524F084E690E0FA
:10119000A0E0B0E0DF91CF911F910F91FF90EF9011
:1011A000DF90CF90BF90AF909F908F90089580E098
:1011B00090E0DC01EFCF24E630E040E050E0111198
:1011C000C8CFDDCFCF93DF9390918F029923C1F0E9
:1011D00061E083E00E942E0361E084E00E942E0320
:1011E00061E087E00E942E0361E088E00E942E0308
:1011F00081E08093C70480930305DF91CF91089528
:101200009CE3899FF0011124ED55FB4F91E094A3DD
:1012100094E0899FE0011124C55ADE4F61E0888186
:101220000E942E0361E08A81DF91CF910C942E03FE
:10123000E82FF0E0E55FFE4F2081EDE6F0E028309A
:1012400050F0EBE6F0E02E3030F0ECE6F0E0263146
:1012500010F0F0E0E0E03081422F50E0283050F50F
:1012600081E090E0A0E0B0E0022E04C0880F991F5A
:10127000AA1FBB1F0A94D2F78095832380838081A5
:10128000811117C0E8E6F0E0263110F0F0E0E0E070
:1012900030818BEF283058F041E02E3008F440E0E8
:1012A00081E090E001C0880F4A95EAF7809583239A
:1012B000808308952E3070F44850510981E090E009
:1012C000A0E0B0E004C0880F991FAA1FBB1F4A9579
:1012D000D2F7D2CF4E505109F1CF80918E028FBFFD
:1012E00008958FB780938E02F89408952F923F92BD
:1012F0004F925F926F927F928F929F92AF92BF9226
:10130000CF92DF92EF92FF920F931F93CF93DF93D1
:10131000182F0E947109C12FD0E08CE3189FF001B3
:101320001124ED55FB4F878C90A0A1A0B2A020A462
:1013300031A40E946D0987E28C9FF0018D9FF00D12
:101340001124EF5DFA4F01A1C680D780E084F184BB
:10135000002329F08DE2C80ED11CE11CF11C87E2AC
:101360008C9FF0018D9FF00D1124EF5DFA4F12A1BB
:101370004284538464847584112329F08DE2481AD1
:10138000510861087108A50194012419350946091D
:101390005709A4E6B0E00E945B2DA701960124192D
:1013A00035094609570957FF07C0509540953095B4
:1013B00021953F4F4F4F5F4F0E94452F0023A1F0D3
:1013C00087E28C9FF0018D9FF00D1124EF5DFA4FA5
:1013D000E081F0E0EE0FFF1FE35FFE4F808191811F
:1013E0002816190609F0D0F51123A1F087E28C9F89
:1013F000F0018D9FF00D1124EF5DFA4FE081F0E0D8
:10140000EE0FFF1FE35FFE4F8081918138161906B2
:1014100009F000F557FD1EC0DA01C90185369105B6
:10142000A105B10524F084E690E0A0E0B0E0DF91F2
:10143000CF911F910F91FF90EF90DF90CF90BF90D1
:10144000AF909F908F907F906F905F904F903F9064
:101450002F90089580E090E0DC01E9CF24E630E0B1
:1014600040E050E01111C2CFD7CFAF92BF92CF92E0
:10147000DF92EF92FF920F931F93CF93DF93CDB73D
:10148000DEB7A2970FB6F894DEBF0FBECDBFCE0178
:1014900001960E9498038E85882399F081E090E060
:1014A000A2960FB6F894DEBF0FBECDBFDF91CF91ED
:1014B0001F910F91FF90EF90DF90CF90BF90AF9072
:1014C0000895CE0101960E94BE04882339F340E0BE
:1014D00060EFCE0101960E948A0401E0E12CD12C3C
:1014E00011E0CE0101960E943704F82ECE0101963C
:1014F0000E94370491E0F9127EC0813009F09EC04D
:10150000113460F2DC86D11002C081E08E878C81BC
:10151000882321F2FE0134968E01055E1F4FCE0115
:10152000839678012191D7012D937D01A817B907E2
:10153000C9F767E0C8010E9420049AA1891398C0E6
:101540008B8D883209F097C0CE0101960E94BE04AF
:1015500040E06CECCE0101960E948A0441E064E414
:10156000CE0101960E948A0468EE73E080E090E06C
:101570000E94E203CE0101960E94BE0440E065E5B0
:10158000CE0101960E948A04F80161918F0140E02A
:10159000CE0101960E948A04E016F106A9F740E008
:1015A0006EEBCE0101960E948A048E01015F1F4FEF
:1015B0005E01F8E1AF0EB11C88E0C82ED12CF12CF1
:1015C000EE24E394CE0101960E9437048111FE2897
:1015D000EE0C81E0C81AD108A9F7D801FD928D015F
:1015E000AA15BB0549F78B898076803609F446C079
:1015F00084E090E055CFEE2DF0E0F81211C08C851C
:101600001817D0F4A4E0B0E0AC0FBD1FAE0FBF1FA1
:101610008C91802399F4F12C193008F41D87D12E78
:10162000A4E0B0E0AC0FBD1FEA0FFB1F8081902F3C
:101630009095892380830DC08113EDCFE4E0F0E025
:10164000EC0FFD1FEE0DF11D8081802B8083FF24A8
:10165000F3946F2DCE0101960E945B041F5F000F73
:1016600011F4E39401E0B7E0BE1508F03ACF48CF9B
:1016700082E090E015CF83E090E012CF90E080E030
:101680000FCF8F929F92AF92BF92CF92DF92EF9245
:10169000FF920F931F93CF936B017C0120E030E00A
:1016A00040E85FE30E941E2C87FDE1C020E030ECA3
:1016B0004AE555E4C701B6010E94192F18163CF4FB
:1016C000C12C30ECD32E3AE5E32E35E4F32E6091B5
:1016D0006E0670916F0680917006909171060E945F
:1016E000232C4B015C0120E030E040E855E4C701C9
:1016F000B6010E94842C9B01AC01C501B4010E947B
:10170000192E20E030E040E05FE30E94AD2D20E0A4
:1017100030E040E85FE30E94AC2D6B017C0120E0EB
:1017200030E040E450E40E941E2C87FDA7C020E07A
:1017300030E04FE753E4C701B6010E94192F181695
:1017400034F4C12CD12C9FE7E92E93E4F92EC70184
:10175000B6010E94922EF62E80916C0690916D0635
:1017600020916B0631E03093C1052093C0051092A3
:10177000BF051092BE05DC01ED91FC910190F08156
:10178000E02D60E0099580916C0690916D060E94B5
:10179000E205C0916B060E94BD034B015C01809184
:1017A0009605811171C081E080939605809395051F
:1017B0009FEF909394051092930510929205809359
:1017C000910580919105CC0FC82BC0939105809114
:1017D0009005813009F0B2C0109290050E94BD03BF
:1017E0004B015C01809191058093BB00809198052D
:1017F00090919905A0919A05B0919B05892B8A2B10
:101800008B2BA1F00E94BD030091980510919905C2
:1018100020919A0530919B05681979098A099B09DD
:10182000061717072807390708F44FC08091BC0036
:1018300083FDD8CF85EC8093BC000E94BD034B0193
:101840005C0180919605813009F47AC080919305FE
:10185000811198C080919305E0E7F5E0AEE9B5E02D
:1018600090E09817B9F121912D939F5FFACFC12C89
:10187000D12C20E8E22E2FE3F22E29CFC12CD12C3F
:1018800080E4E82EFE2C63CF809198059091990515
:10189000A0919A05B0919B05892B8A2B8B2B09F47B
:1018A0007ECF0E94BD03009198051091990520916B
:1018B0009A0530919B05681979098A099B090617D1
:1018C00017072807390708F06ACF809197050E940B
:1018D0003B0580E010929D0580939C0580916C06ED
:1018E00090916D06DC01ED91FC910284F385E02D71
:1018F0000995C82F682F6F76606180E00E94C90645
:101900006F2D8EEF0E94C9066C2F80E00E94C906E1
:1019100065E070E080E090E00E94E2036C2F606A76
:1019200080E0CF911F910F91FF90EF90DF90CF90CB
:10193000BF90AF909F908F900C94C90685EE7BCF9F
:101940008091980590919905A0919A05B0919B0579
:10195000892B8A2B8B2B09F474CF0E94BD03009135
:1019600098051091990520919A0530919B05681969
:1019700079098A099B09061717072807390708F00C
:1019800060CFA3CF81E068CFFF920F931F93CF93D7
:10199000DF9301E215E0D0E0C0E0F801F1908F01A3
:1019A000CE010E94452DF81621F06F2DCE010E9428
:1019B0004D2D2196CF34D10581F781E295E0DF915D
:1019C000CF911F910F91FF90089597E2899FF001A9
:1019D0001124EF5DFA4F43A354A365A376A30E949D
:1019E000A60180936F050C94C40C97E2899FF001C7
:1019F0001124EF5DFA4F60830E94A60180936F056A
:101A00000C94C40C0F931F93CF93DF939CE3899F97
:101A1000E0011124CD55DB4F4F8D58A169A17AA16A
:101A200097E2899FF0011124EF5DFA4F42835383BF
:101A30006483758384E081830E94A6010FE615E02C
:101A4000F80180830E94C40C1AAE0E94A601F8011E
:101A50008083DF91CF911F910F910C94C40CCF9391
:101A6000C82F0E9418092CE3C29FF0011124ED55E4
:101A7000FB4F878D90A1A1A1B2A127E2C29FF001E7
:101A80001124EF5DFA4F82839383A483B58384E0AE
:101A900081830E94A60180936F05CF910C94C40CA2
:101AA000FF920F931F93CF93DF93F82EC82FD0E0B0
:101AB0000E9414042CE32C9F80012D9F100D1124F3
:101AC0000D551B4FF80166A777A780AB91AB0E941D
:101AD000BD03F80162A773A784A795A7F1E0FF12E1
:101AE00081C083B182FB882780F9809311058CE344
:101AF0008C9FF0018D9FF00D1124ED55FB4F13AA23
:101B000014AA15AA16AA10AE17AA178A108E118E3B
:101B1000128E158E148E14A287E28C9FF0018D9F79
:101B2000F00D1124EF5DFA4F80A1811103C0878D64
:101B30008823D1F08CE38C9FF0018D9FF00D112450
:101B4000ED55FB4F82AD81110FC087E28C9FF001F4
:101B50008D9FF00D1124EF5DFA4F11820E94A601B6
:101B600080936F050E94C40CC55FDE4F2881EDE6AF
:101B7000F0E0283050F0EBE6F0E02E3030F0ECE60C
:101B8000F0E0263110F0F0E0E0E03081422F50E04C
:101B9000283088F581E090E0A0E0B0E0022E04C09B
:101BA000880F991FAA1FBB1F0A94D2F7832B80832B
:101BB0009BB384E0283048F031E02E3008F430E068
:101BC00081E001C0880F3A95EAF7982B9BBB909172
:101BD0006800892B80936800DF91CF911F910F914E
:101BE000FF900895F11083CF89B185FB882780F994
:101BF0008093D5047CCF2E3070F44850510981E099
:101C000090E0A0E0B0E004C0880F991FAA1FBB1F9E
:101C10004A95D2F7CBCF4E505109F1CFFC0101903C
:101C20000020E9F73197AF01481B590BBC0182EC4A
:101C300095E00C94B40187E891E00C940E0ECF93DC
:101C4000DF930E94A102EC010E941B0E8C0F9D1FCE
:101C5000DF91CF9108958F929F92AF92BF920F9391
:101C60001F93CF93DF93CDB7DEB7A1970FB6F8944C
:101C7000DEBF0FBECDBF19A2423008F44AE08E018C
:101C80000F5D1F4F842E912CB12CA12CA501940126
:101C90000E94232FE62FB901CA01EA30F4F4E05D77
:101CA000D801EE938D01232B242B252B79F790E07F
:101CB00080E0109719F0CD010E940E0EA1960FB68C
:101CC000F894DEBF0FBECDBFDF91CF911F910F9172
:101CD000BF90AF909F908F900895E95CE1CFCF9235
:101CE000DF92EF92FF92CF93DF936B017C016DE265
:101CF00082EC95E00E945402EC0166277727CB0125
:101D00006C197D098E099F094AE00E942B0E8C0FE9
:101D10009D1FDF91CF91FF90EF90DF90CF900895BE
:101D2000CF93DF9397FF0AC00E946F0EEC010E94D1
:101D30001B0E8C0F9D1FDF91CF9108954AE00E94EA
:101D40002B0EF4CFCF93DF93682F70E090E080E00C
:101D50004AE00E942B0EEC010E941B0E8C0F9D1F6F
:101D6000DF91CF910895CF93DF93BC01990F880B3A
:101D7000990B4AE00E942B0EEC010E941B0E8C0F67
:101D80009D1FDF91CF9108950F931F93CF93DF9302
:101D9000C82F8AE791E00E94A1020C2F10E087E291
:101DA000C89FE0011124CF5DDA4F89A190E00E9425
:101DB000B30E84E691E00E94A1028AA190E00E9405
:101DC000B30E86E591E00E94A1028F8D90E00E9403
:101DD000B30E87E491E00E94A10288A190E00E94E6
:101DE000B30E8DE391E00E94A1028E8D90E00E94DF
:101DF000B30E8DE291E00E94A1026E817F81888501
:101E000099850E94900E8CE191E00E94A1026A8562
:101E10007B858C859D850E94900E89E091E00E94D3
:101E2000A1026E857F85888999894AE00E942B0EE0
:101E30000E941B0E85EF90E00E94A1026A897B89B7
:101E40008C899D894AE00E942B0E0E941B0E8EEE0B
:101E500090E00E94A10289810E94A20E88EE90E08B
:101E60000E94A10288810E94A20E83EE90E00E944F
:101E7000A1026A817B818C819D810E94900E86EDFA
:101E800090E00E94A1028CE3809FF001819FF00D01
:101E90001124ED55FB4F678D70A181A192A1DF91B7
:101EA000CF911F910F910C94900ECF93DF93C82F79
:101EB0008AE891E00E940E0E8CE3C89FE001112495
:101EC000CD55DB4F8BAD0E94A20E1BAEDF91CF91A3
:101ED0000895FC0180819181009711F00C940630E7
:101EE0000895CF93DF93682F80911F05909120056F
:101EF000892B89F0C0911B05D0911C05062E000C82
:101F0000770BCE010E945E31009729F08C1B9D0B50
:101F1000DF91CF9108958FEF9FEFFACF0F931F932B
:101F2000CF93DF938C01EB01FC01808191810097BD
:101F3000E1F06881798161157105A9F042815381D1
:101F40002C813D814217530770F00E9469318C81CA
:101F50009D81F801958384831D821C82DF91CF913E
:101F60001F910F9108950E94063088819981F80190
:101F7000918380838A819B81938382838C819D81DD
:101F800095838483198218821B821A82E5CF1F935E
:101F9000CF93DF93182F8CE3189FE0011124CD55C8
:101FA000DB4F21E02AAF97E2919FF0011124EF5D12
:101FB000FA4F8081368DDF011D929A95E9F7808373
:101FC000368F90E0880F991FDC01A35EBE4F4D91C4
:101FD0005C9170E060E046875787608B718B428B25
:101FE000538B648B758B468B578B608F718F428FB1
:101FF000538F648F758F21838B5E9E4FDC018D9193
:102000009C91B0E0A0E083A394A3A5A3B6A30E94F3
:10201000A60180936F050E94C40C812F0E94ED07DA
:102020001BA2DF91CF911F910895CF93DF93E7E239
:102030008E9FD0011124AF5DBA4FED019E2F1992F2
:102040009A95E9F7FD01A081B0E0AA0FBB1FA35E3E
:10205000BE4F8D919C91B0E0A0E086879787A08BC2
:10206000B18B828B938BA48BB58B868B978BA08F38
:10207000B18F828F938FA48FB58F81E0818310827F
:1020800080ED97E0A0E0B0E083A394A3A5A3B6A35E
:102090000E94A60180936F05DF91CF910C94C40C30
:1020A000FC0180819181009711F00C94B62B60E0C7
:1020B00070E0CB0108950F931F93CF93DF93EC0152
:1020C00088819981009759F02A813B81261737072B
:1020D00030F081E0DF91CF911F910F9108958B0136
:1020E0006F5F7F4F0E948F30009759F099838883EC
:1020F0001B830A832C813D81232B59F7FC0110821D
:10210000E8CF80E0E7CFEF92FF920F931F93CF933A
:10211000DF93EC017B018A01BA010E945B102881E8
:102120003981811114C02115310519F0C9010E94AE
:102130000630198218821D821C821B821A82CE01EF
:10214000DF91CF911F910F91FF90EF9008951D8324
:102150000C83B701C9010E946931F1CFFC011182E2
:10216000108213821282158214826115710551F05A
:10217000FB0101900020E9F73197AF01461B570B97
:102180000C9483100895CF92DF92EF92FF920F93F9
:102190001F93CF93DF93EC016B017A01461757072A
:1021A00020F48D2D6A01E62EF82E69E871E0CE014B
:1021B0000E94AE1000911F0510912005C016D10697
:1021C00040F5E016F10608F48701E0911B05F09157
:1021D0001C05E00FF11FF080108260911B057091CB
:1021E0001C056C0D7D1D61157105E9F0FB01019069
:1021F0000020E9F73197AF01461B570BCE010E9433
:10220000831080911B0590911C05080F191FF80180
:10221000F082CE01DF91CF911F910F91FF90EF904F
:10222000DF90CF90089588819981009711F00E94E6
:102230000630198218821D821C821B821A82E1CF0D
:10224000DF92EF92FF920F931F93CF93DF93CDB75F
:10225000DEB72C970FB6F894DEBF0FBECDBFD82ED9
:10226000192F062F8DE30E94710F181619060CF016
:1022700062C040911F0550912005BC016F5F7F4FE8
:102280006417750708F057C0CE0101960E94C3106D
:10229000BE016F5F7F4F8BE195E00E948E0FCE01F4
:1022A00001960E94690F69E871E0CE0107960E94CD
:1022B000AE10ED2CF12E10E06EE871E080911B0560
:1022C00090911C05112311F090E080E00E94DD2B1D
:1022D000009779F1BC01CE0101960E94AE10BE01BB
:1022E0006F5F7F4FCE0107960E948E0FCE01019641
:1022F0000E94690FCE0107960E945010F70161936A
:1023000071937F011F5F0113D7CF11E0CE010796B4
:102310000E94690F812F2C960FB6F894DEBF0FBE76
:10232000CDBFDF91CF911F910F91FF90EF90DF9084
:10233000089510E0EBCF10E0EDCFEF92FF920F93F6
:102340001F93CF93DF93CDB7DEB72C970FB6F894DA
:10235000DEBF0FBECDBF7C018B018DE30E94710FEC
:10236000181619060CF06BC040911F0550912005FE
:10237000BC016F5F7F4F6417750708F060C0CE0126
:1023800001960E94C310BE016F5F7F4F8BE195E005
:102390000E948E0FCE0101960E94690F69E871E0DC
:1023A000CE0107960E94AE106EE871E080911B0589
:1023B00090911C050E94DD2B0097E9F1BC01CE0134
:1023C00001960E94AE10BE016F5F7F4FCE0107964F
:1023D0000E948E0FCE0101960E94690FCE010796D2
:1023E0000E945010F70160837183828393830115EB
:1023F000110509F16EE871E090E080E00E94DD2BAC
:102400000097C9F0BC01CE0101960E94AE10BE013A
:102410006F5F7F4FCE0107960E948E0FCE0101960F
:102420000E94690FCE0107960E945010F801608348
:10243000718382839383CE0107960E94690F2C9645
:102440000FB6F894DEBF0FBECDBFDF91CF911F91C5
:102450000F91FF90EF90089585ED8093BC008091DF
:10246000980590919905A0919A05B0919B050796C2
:10247000A11DB11D23E0B695A795979587952A953F
:10248000D1F72091BC0024FD03C010929605089559
:10249000409198055091990560919A0570919B051E
:1024A000452B462B472B69F30097A105B10541F059
:1024B00025E32A95F1F700000197A109B109E1CFC1
:1024C000809197050C943B052F923F924F925F921B
:1024D0006F927F928F929F92AF92BF92CF92DF9234
:1024E000EF92FF920F931F93CF93DF93CDB7DEB799
:1024F00068970FB6F894DEBF0FBECDBF0E941404DC
:1025000000918A0210918B0220918C0230918D02F1
:10251000601B710B820B930B6A317105810591056C
:1025200008F447C00E94140460938A0270938B02DF
:1025300080938C0290938D0221E633E0388F2F8BAD
:10254000312C212CAF89B88D11968C91119788234D
:1025500019F112966C9112976623F1F04C91E42FC9
:10256000F0E0FA83E983FDE5F29DC001F39D900D53
:1025700011249C0159E0549F200D311D1124F901B3
:10258000E95FFC4FA781B085B887AF83568155239B
:1025900049F1513009F44BC0BFEF2B1A3B0AEF89C8
:1025A000F88DE35AFF4FF88FEF8BF4E02F163104CC
:1025B00049F668960FB6F894DEBF0FBECDBFDF9127
:1025C000CF911F910F91FF90EF90DF90CF90BF9030
:1025D000AF909F908F907F906F905F904F903F90C3
:1025E0002F900895828193816F817885681779078C
:1025F00008F48CC189E069817A81869FF001879F08
:10260000F00D1124ADE5A29DC001A39D900D1124F4
:10261000E80FF91FE95FFC4F10861782552309F474
:1026200097C116824F5FEF89F88D40832EC1E480F9
:10263000F580AF81B885AE15BF05E0F629813A81F6
:102640002F5F3F4F6217130611F00CF029C1613064
:1026500009F455C1FC01E95FFC4F6081262F2F7101
:10266000B4E8B29F30011124462E4294469437E0DC
:10267000432261816770660F660F660F6429E1E48B
:10268000E69F20011124885F9C4FDC016C916695C8
:1026900066956695F4E8F69FF0011124FA87E987BC
:1026A00069E049815A81649F8001659F100D112462
:1026B0007DE5729DC001739D900D1124080F191FB7
:1026C000C801895F9C4F9C838B83DC01DC90AD2D1E
:1026D000AF71B4E82B2F30E0B0E00E949D2D0E9436
:1026E000232C6B877C878D879E87B70190E080E0E5
:1026F0000E94232C4B015C01D294D69487E0D8220F
:10270000EB81FC8161816770660F660F660FD62AC8
:10271000F1E4FD9DB001112490E080E00E94232CA3
:102720006B837C838D839E83F801E85FFC4F60811F
:1027300066956695669524E8269FB001112490E081
:1027400080E00E94232C6F87788B898B9A8B4F8136
:102750005885BA0190E080E00E94232C6B017C0137
:10276000B30190E080E00E94232C2B853C854D85B1
:102770005E850E94AC2DA50194010E94192EA7012F
:1027800096010E94842C6B8B7C8B8D8B9E8BB2016F
:1027900090E080E00E94232C2B813C814D815E8162
:1027A0000E94AC2DA50194010E94192EA70196014B
:1027B0000E94842C2B013C01A985BA85BD0190E0C3
:1027C00080E00E94232C2F85388949895A890E94EC
:1027D000AC2DA50194010E94192EA70196010E941B
:1027E000842C4B015C012B893C894D895E896B856A
:1027F0007C858D859E850E94AD2D0E94C12E0E94F4
:10280000922E7B01A30192016B817C818D819E813F
:102810000E94AD2D0E94C12E0E94922E6B01A50137
:1028200094016F85788989899A890E94AD2D0E94CB
:10283000C12E0E94922E5B0129E0E981FA812E9F30
:10284000C0012F9F900D11244DE5429D9001439DA5
:10285000300D1124820F931FFC01E95FFC4F8F8123
:102860009885019690878783B701122D110F110F5C
:10287000812F0E94FF06B60181E0810F0E94FF06B2
:10288000B50182E0810F0E94FF06AF89B88D9C914F
:1028900012968C911297981708F47ECE1C927CCEDB
:1028A00069E0629FA001639F500D1124840F951F62
:1028B000FC01E95FFC4F6081262F2F7174E8729F45
:1028C00030011124462E4294469427E04222618131
:1028D0006770660F660F660F6429A1E4A69F20014A
:1028E0001124885F9C4FFC01608166956695669512
:1028F00034E8369F900111243A872987D1CE1A8671
:102900001986512C412C712C612CCACE8081682FE4
:102910006F71B4E8B69F7001112482958695877017
:10292000C180EC2DE770CE2ECC0CCC0CCC0CC82A80
:10293000F1E4FC9D60011124285F3C4FD9018C918A
:10294000869586958695B4E8B89F5001112474CF7A
:1029500021E026839ACF8F929F92AF92BF92CF921F
:10296000DF92EF92FF926B017C010E9414044B01F5
:102970005C010E9464120E941404681979098A0992
:102980009B096C157D058E059F0598F3FF90EF90D0
:10299000DF90CF90BF90AF909F908F9008950F934E
:1029A0001F93CF93DF93C82FD0E080918F028823AD
:1029B00059F161E083E00E942E0361E084E00E940F
:1029C0002E0361E087E00E942E0361E088E00E9410
:1029D0002E0381E08093C7048093030562E370E0D7
:1029E00080E090E00E94AB14109295048CE38C9FE1
:1029F000F0018D9FF00D1124ED55FB4F15A2DF91D5
:102A0000CF911F910F9108958E01000F111F000F9C
:102A1000111F055A1E4F61E0F80180810E942E03AC
:102A200061E0F80182810E942E038CE38C9FF0010B
:102A30008D9FF00D1124ED55FB4F81E084A3CECF87
:102A4000DF92EF92FF920F931F93CF93DF93C82FE4
:102A5000D0E097E2899FF0011124EF5DFA4F908159
:102A6000911112C08CE38C9FF0018D9FF00D112409
:102A7000ED55FB4F81E083AFDF91CF911F910F9117
:102A8000FF90EF90DF90089520919E04222341F063
:102A900020912105222381F320914805222361F30F
:102AA000D62EF82E933041F580918F028823B9F00D
:102AB00060E083E00E942E0361E084E00E942E0328
:102AC00060E087E00E942E0361E088E0DF91CF9113
:102AD0001F910F91FF90EF90DF900C942E03CC0F7D
:102AE000DD1FCC0FDD1FC55ADE4F60E088810E94DC
:102AF0002E0361E08A81EACF8CE38C9FF0018D9FE9
:102B0000F00D1124ED55FB4F84A1811104C087A164
:102B1000833009F4B1CF8CE38C9FF0018D9FF00DD1
:102B20001124ED55FB4F84A181110CC087A1833086
:102B300049F08F2D0E94CF1462E370E080E090E0B6
:102B40000E94AB140E9471098CE38C9F80018D9FC1
:102B5000100D11240D551B4FF801E1A40E946D09C1
:102B6000F80183A1843059F48DE990E0DF91CF9191
:102B70001F910F91FF90EF90DF900C94A102809134
:102B80000603882319F1118286E0828387E28C9FF5
:102B9000F0018D9FF00D1124EF5DFA4FE081F0E020
:102BA000EE0FFF1FE35FFE4F80819181E81619064B
:102BB00009F008F445C087E890E0DF91CF911F91BC
:102BC0000F91FF90EF90DF900C941F0E87E28C9F87
:102BD000F0018D9FF00D1124EF5DFA4F80A1882345
:102BE000F9F08181823020F4F80184A18230C1F0B3
:102BF00087E28C9FF0018D9FF00D1124EF5DFA4F5D
:102C00008081882369F08CE38C9FF0018D9FF00D0B
:102C10001124ED55FB4FD08281E081831282B6CF23
:102C20008CE38C9FF0018D9FF00D1124ED55FB4F2F
:102C3000118286E0828382AD882309F4A7CFEECF8C
:102C40000E9471098CE38C9F80018D9F100D1124CF
:102C50000D551B4FF80111A610A6138A148A158A68
:102C6000168A0E946D0983E0F80183A387A38093ED
:102C7000950491AD80918F02992309F442C0882375
:102C800081F161E083E00E942E0360E084E00E9415
:102C90002E0361E087E00E942E0360E088E00E943E
:102CA0002E038CE38C9FF0018D9FF00D1124ED55C8
:102CB000FB4F15A265E070E080E090E00E94AB144D
:102CC00080918F028823D9F180E00E94500D81E02D
:102CD000DF91CF911F910F91FF90EF90DF900C94B7
:102CE000500D8E01000F111F000F111F055A1E4FAE
:102CF00061E0F80180810E942E0360E0F80182818A
:102D0000CECF882371F060E083E00E942E0361E063
:102D100084E00E942E0360E087E00E942E0361E0C1
:102D2000BDCF8E01000F111F000F111F055A1E4F3E
:102D300060E0F80180810E942E0361E0DFCF8F2DDB
:102D4000C7CFDF92EF92FF920F931F93CF93DF9342
:102D5000C82FD0E097E2899FF0011124EF5DFA4F70
:102D60009081911112C08CE38C9FF0018D9FF00D2A
:102D70001124ED55FB4F81E083AFDF91CF911F917F
:102D80000F91FF90EF90DF90089520919E042223F1
:102D900041F020912105222381F32091480522232F
:102DA00061F3D62EF82E933041F580918F0288235F
:102DB000B9F061E083E00E942E0360E084E00E94AD
:102DC0002E0361E087E00E942E0360E088E0DF913F
:102DD000CF911F910F91FF90EF90DF900C942E03F5
:102DE000CC0FDD1FCC0FDD1FC55ADE4F61E088819F
:102DF0000E942E0360E08A81EACF8CE38C9FF00171
:102E00008D9FF00D1124ED55FB4F84A1811104C05D
:102E100087A1813009F4B1CF8CE38C9FF0018D9FA5
:102E2000F00D1124ED55FB4F84A181110CC087A139
:102E3000813049F08F2D0E94CF1462E370E080E072
:102E400090E00E94AB140E9471098CE38C9F80017A
:102E50008D9F100D11240D551B4FF801E0A40E9409
:102E60006D09F80183A1823059F48EE790E0DF917B
:102E7000CF911F910F91FF90EF90DF900C94A102E2
:102E800080910603882319F1118286E0828387E20C
:102E90008C9FF0018D9FF00D1124EF5DFA4FE081C2
:102EA000F0E0EE0FFF1FE35FFE4F80819181E81697
:102EB000190609F008F445C088E690E0DF91CF914B
:102EC0001F910F91FF90EF90DF900C941F0E87E2FF
:102ED0008C9FF0018D9FF00D1124EF5DFA4F878DCF
:102EE0008823F9F08181823020F4F80184A18230B6
:102EF000C1F087E28C9FF0018D9FF00D1124EF5DF2
:102F0000FA4F8081882369F08CE38C9FF0018D9FBC
:102F1000F00D1124ED55FB4FD08281E081831282A8
:102F2000B6CF8CE38C9FF0018D9FF00D1124ED55F1
:102F3000FB4F118286E0828382AD882309F4A7CFFC
:102F4000EECF0E9471098CE38C9F80018D9F100D44
:102F500011240D551B4FF80111A610A6138A148ACF
:102F6000158A168A0E946D0981E0F80183A387A360
:102F70008093950491AD80918F02992309F442C00A
:102F8000882381F160E083E00E942E0361E084E009
:102F90000E942E0360E087E00E942E0361E088E03B
:102FA0000E942E038CE38C9FF0018D9FF00D112465
:102FB000ED55FB4F15A265E070E080E090E00E94C7
:102FC000AB1480918F028823D9F180E00E94500DCC
:102FD00081E0DF91CF911F910F91FF90EF90DF90F3
:102FE0000C94500D8E01000F111F000F111F055A78
:102FF0001E4F60E0F80180810E942E0361E0F8011D
:103000008281CECF882371F061E083E00E942E039D
:1030100060E084E00E942E0361E087E00E942E03BE
:1030200060E0BDCF8E01000F111F000F111F055A68
:103030001E4F61E0F80180810E942E0360E0DFCF27
:103040008F2DC7CFCF93DF93C82FD42F80E0C2300E
:1030500008F48C2F282F30E09CE3899FF001112485
:10306000ED55FB4F92AD911141C0613009F442C062
:1030700097E2929FF001939FF00D1124EF5DFA4FBC
:1030800090A1992399F1978D992381F190819330A3
:1030900069F10E9476098D1798F4C430E1F580EB50
:1030A00090E00E941F0E81E080939E046D2F80E0CF
:1030B0000E94A1166D2F81E0DF91CF910C94A11693
:1030C000D81708F05DC0C430C1F580EB90E00E94D5
:1030D0001F0E81E080939E046D2F80E00E942015DA
:1030E0006D2F81E0DF91CF910C9420156623A9F21A
:1030F000623049F3C43099F580EB90E00E941F0ED6
:1031000081E080939E0480E00E94CF1481E0DF91F3
:10311000CF910C94CF1410929E04C33059F48FEBCE
:1031200090E00E941F0E81E080938F02C0E06D2F1F
:103130008C2FC2CF10928F02FACF10929E04C33010
:1031400059F48FEB90E00E941F0E81E080938F0274
:10315000C0E06D2F8C2FC6CF10928F02FACF109245
:103160009E04C33051F48FEB90E00E941F0E81E06B
:1031700080938F02C0E08C2FCACF10928F02FBCFBA
:10318000DF91CF910895EF92FF920F931F93CF930A
:10319000DF93CDB7DEB72C970FB6F894DEBF0FBE26
:1031A000CDBF8DE30E94710F181619060CF087C071
:1031B00040911F0550912005BC016F5F7F4F641740
:1031C000750708F07CC0CE0101960E94C310BE01B5
:1031D0006F5F7F4F8BE195E00E948E0FCE010196CD
:1031E0000E94690F69E871E0CE0107960E94AE1057
:1031F0006EE871E080911B0590911C050E94DD2B0B
:10320000009709F458C0BC01CE0101960E94AE108F
:10321000BE016F5F7F4FCE0107960E948E0FCE01D9
:1032200001960E94690FCE0107960E945010F62E5B
:103230006EE871E090E080E00E94DD2B0097D9F10C
:10324000BC01CE0101960E94AE10BE016F5F7F4FA0
:10325000CE0107960E948E0FCE0101960E94690F43
:10326000CE0107960E945010E62E6EE871E090E0C5
:1032700080E00E94DD2B8C010097E9F063E971E0AA
:103280000E947E314E2D60E0892B91F468E971E057
:10329000C8010E947E314E2D61E0892B49F46DE911
:1032A00071E0C8010E947E31892B29F04E2D62E029
:1032B0008F2D0E942218CE0107960E94690F2C962E
:1032C0000FB6F894DEBF0FBECDBFDF91CF911F9137
:1032D0000F91FF90EF9008951F920F920FB60F92EB
:1032E00011242F933F934F935F936F937F938F930B
:1032F0009F93AF93BF93EF93FF9382EC95E00E946F
:103300003202FF91EF91BF91AF919F918F917F9189
:103310006F915F914F913F912F910F900FBE0F9042
:103320001F9018951F920F920FB60F9211242F9392
:103330008F939F93EF93FF93E091D205F091D30584
:103340008081E091D805F091D90582FD1BC0908164
:103350008091DB058F5F8F732091DC05821741F030
:10336000E091DB05F0E0EE53FA4F958F8093DB059B
:10337000FF91EF919F918F912F910F900FBE0F9022
:103380001F9018958081F4CF1F920F920FB60F9265
:1033900011242F933F938F939F93AF93BF9380916B
:1033A000F5029091F602A091F702B091F8023091E7
:1033B000F40223E0230F2D3758F50196A11DB11D0E
:1033C0002093F4028093F5029093F602A093F70203
:1033D000B093F8028091F9029091FA02A091FB0259
:1033E000B091FC020196A11DB11D8093F90290934A
:1033F000FA02A093FB02B093FC02BF91AF919F91A0
:103400008F913F912F910F900FBE0F901F901895A5
:1034100026E8230F0296A11DB11DD2CF1F920F9255
:103420000FB60F9211242F933F934F935F936F9397
:103430007F938F939F93AF93BF93EF93FF9380916D
:10344000B900887F803609F44AC0F0F5883209F463
:10345000A7C018F5803109F49BC0B8F4882309F49B
:10346000F9C0883009F494C0FF91EF91BF91AF91FA
:103470009F918F917F916F915F914F913F912F918C
:103480000F900FBE0F901F901895883109F488C0D7
:10349000803251F78093940514C0803409F49DC0A4
:1034A00040F48033B9F38833F9F68093940585ECC2
:1034B000B0C0803509F485C0883509F496C08834D9
:1034C00099F60E942C12D0CF883909F48CC038F5B7
:1034D000883729F050F4883611F0803729F683E0D8
:1034E000809396051092F30257C0883809F47BC088
:1034F000803919F0803809F0B7CF8091F30280321B
:1035000008F071C0E091F30281E08E0F8093F30226
:103510008091BB00F0E0ED52FD4F80833DC0803BC9
:1035200039F0E0F4803A09F479C0883A09F09CCF88
:1035300084E0809396051092D2021092D102E0911D
:10354000FF02F091000309958091D10281110FC013
:1035500081E08093D1021092B10209C0803C09F44D
:10356000A6CF883C09F4A3CF883B09F07DCFE0913A
:10357000D20281E08E0F8093D202F0E0EF54FD4F33
:1035800080818093BB009091D2028091D10229C0AA
:10359000809191058093BB0085EC8093BC0064CF43
:1035A0009091930580919205981758F5E0919305B5
:1035B00081E08E0F80939305F0E0E059FA4F80810F
:1035C000E9CFE091930581E08E0F80939305809180
:1035D000BB00F0E0E059FA4F808390919305809111
:1035E00092059817C8F285E8D8CFE091930581E05D
:1035F0008E0F809393058091BB00F0E0E059FA4F65
:1036000080838091950581115CCF81E08093900546
:1036100084EA8093BC001092960526CF85EC8093B7
:10362000BC00109296058091F302803230F4E09154
:10363000F302F0E0ED52FD4F10826091F30270E072
:10364000E091FD02F091FE0283ED92E00995109267
:10365000F3020ACF1092940534CF1F920F920FB647
:103660000F921124CF92DF92EF92FF921F932F932C
:103670003F934F935F936F937F938F939F93AF93FA
:10368000BF93EF93FF93CF93DF9300D01F92CDB7FB
:10369000DEB783B18983898182FB882780F98A8399
:1036A000898183FB882780F98B8381E00E94300821
:1036B000182F0E94BD03C0900905D0900A05E09024
:1036C0000B05F0900C052091160530911705DC01D3
:1036D000CB018C199D09AE09BF09820F931F9093EE
:1036E000170580931605909111058A81981709F4A2
:1036F00009C180911605909117058D3A9D4008F4F7
:1037000001C19A818B8198130DC08091120590910F
:103710001305A0911405B0911505892B8A2B8B2BCD
:1037200009F022C19A818B81981322C180910305EF
:10373000811170C08091E1048823C9F04091120585
:103740005091130560911405709115058091E10465
:1037500090E0B0E0A0E0481759076A077B0738F00F
:1037600080918F02811103C081E00E94E208809164
:10377000E004882359F08091DF04811307C0809111
:103780008F02811103C081E00E94E208409112057E
:10379000509113056091140570911505E09148054D
:1037A000F0E0EE0FFF1FE35FFE4F80819181B0E0FC
:1037B000A0E084179507A607B70760F58091FB0482
:1037C0009091FC04892BF1F08091160590911705DA
:1037D0002091FB043091FC04B0E0A0E0821B930B2D
:1037E000A109B1098093F6049093F704A093F8041B
:1037F000B093F9048091F6049091F704A091F80435
:10380000B091F90480911605909117059093FC04EE
:103810008093FB0480910605813009F02EC18091D0
:10382000FE049091FF04A0910005B09101058F3F27
:103830009F4FAF4FBF4799F08091FE049091FF04D6
:10384000A0910005B09101050196A11DB11D8093C5
:10385000FE049093FF04A0930005B09301058091AE
:103860000305811138C020916705222309F4B3C0F4
:103870004091FE045091FF04609100057091010594
:103880008091E2049091E304A091E404B091E504F6
:10389000481759076A077B070CF46DC080918F02A7
:1038A000811103C081E00E94E20820910705E091A8
:1038B0004805F0E0EE0FFF1FE35FFE4F808191812E
:1038C0002817190641F038F080918F02811103C04A
:1038D00081E00E94E208109217051092160580916F
:1038E000120590911305A0911405B091150501964C
:1038F000A11DB11D8093120590931305A09314058B
:10390000B09315050E94140460930D0570930E0585
:1039100080930F05909310058A81809311050E9472
:10392000BD036093090570930A0580930B0590937E
:103930000C050F900F900F90DF91CF91FF91EF91B9
:10394000BF91AF919F918F917F916F915F914F91B7
:103950003F912F911F91FF90EF90DF90CF900F90AC
:103960000FBE0F901F90189581E080930505DECE65
:1039700010920505DBCE8BEF810F8B3560F58091C2
:10398000480590E0C0901205D0901305E090140512
:10399000F0901505880F991FFC01E35FFE4F4081F1
:1039A000518170E060E04C155D056E057F0598F46F
:1039B000409116055091170570E060E0C0905E05DB
:1039C000D0905F05E0906005F0906105C416D506C3
:1039D000E606F70698F115501B3510F421112BC09F
:1039E00040911205509113056091140570911505D1
:1039F000E0914805F0E0EE0FFF1FE35FFE4F80818E
:103A00009181B0E0A0E084179507A607B70798F466
:103A100080911605909117054091EA045091EB04AE
:103A20006091EC047091ED04B0E0A0E048175907F4
:103A30006A077B07E0F01092070537CF835F9E4F40
:103A4000FC0120813181809107058F5F80930705FC
:103A5000809107058217130609F008F426CF80919C
:103A60001A05811122CF84E080931A051ECF809120
:103A700007058F5F8093070518CF80910605833077
:103A800009F029CF8091FE049091FF04A0910005D8
:103A9000B09101050097A105B04899F08091FE040E
:103AA0009091FF04A0910005B09101050197A10933
:103AB000B1098093FE049093FF04A0930005B09396
:103AC000010580910305811106CF2091680522230D
:103AD00009F44FC04091FE045091FF04609100052D
:103AE000709101058091E6049091E704A091E804AB
:103AF000B091E90484179507A607B70754F08091A1
:103B00008F02811103C081E00E94E2082091080524
:103B1000CECE8BEF810F8B3560F58091480590E01C
:103B2000C0901205D0901305E0901405F090150593
:103B3000880F991FFC01E35FFE4F4081518170E0C7
:103B400060E04C155D056E057F0598F44091160503
:103B50005091170570E060E0C0906205D090630559
:103B6000E0906405F0906505C416D506E606F706F4
:103B700098F115501B3510F421112BC040911205FE
:103B8000509113056091140570911505E091480559
:103B9000F0E0EE0FFF1FE35FFE4F80819181B0E008
:103BA000A0E084179507A607B70798F4809116053B
:103BB000909117054091EE045091EF046091F0044C
:103BC0007091F104B0E0A0E0481759076A077B073D
:103BD000E0F0109208059ACF835F9E4FFC01208190
:103BE0003181809108058F5F8093080580910805D9
:103BF0008217130609F008F489CF80911A05811104
:103C000085CF84E080931A0581CF809108058F5F6E
:103C1000809308057BCF1F920F920FB60F9211244D
:103C2000CF92DF92EF92FF921F932F933F934F9388
:103C30005F936F937F938F939F93AF93BF93EF9314
:103C4000FF93CF93DF93CDB7DEB72697DEBFCDBF0F
:103C500089B18D838D8185FB882780F98E8380E0F3
:103C60000E943008182F0E94BD03C090CD04D09050
:103C7000CE04E090CF04F090D0046C197D098E0939
:103C80009F0969837A838B839C8389819A81AB8125
:103C9000BC812091DA043091DB04820F931F909352
:103CA000DB048093DA049091D5048E81981709F48F
:103CB000E4C08091DA049091DB048D3A9D4008F4D1
:103CC000DCC08091C704811168C08091A50488235D
:103CD000A9F04091D6045091D7046091D804709116
:103CE000D9048091A50490E0B0E0A0E048175907FE
:103CF0006A077B0718F080E00E94E2088091A40424
:103D0000882339F08091A304811303C080E00E94CE
:103D1000E2084091D6045091D7046091D804709184
:103D2000D904E0912105F0E0EE0FFF1FE35FFE4FA5
:103D300080819181B0E0A0E084179507A607B707BE
:103D400060F58091BF049091C004892BF1F08091BF
:103D5000DA049091DB042091BF043091C004B0E0FC
:103D6000A0E0821B930BA109B1098093BA04909340
:103D7000BB04A093BC04B093BD048091BA0490919D
:103D8000BB04A091BC04B091BD048091DA04909171
:103D9000DB049093C0048093BF048091CA048130F7
:103DA00009F022C18091C2049091C304A091C4047F
:103DB000B091C5048F3F9F4FAF4FBF4799F080919F
:103DC000C2049091C304A091C404B091C5040196AB
:103DD000A11DB11D8093C2049093C304A093C40499
:103DE000B093C5048091C704811130C02091400573
:103DF000222309F4A7C04091C2045091C3046091EA
:103E0000C4047091C5048091A6049091A704A09168
:103E1000A804B091A904481759076A077B070CF456
:103E200061C080E00E94E2082091CB04E09121056E
:103E3000F0E0EE0FFF1FE35FFE4F808191812817B6
:103E4000190621F018F080E00E94E2081092DB04CD
:103E50001092DA048091D6049091D704A091D804EE
:103E6000B091D9040196A11DB11D8093D604909301
:103E7000D704A093D804B093D9040E94140460938B
:103E8000D1047093D2048093D3049093D4048E8190
:103E90008093D5040E94BD036093CD047093CE043B
:103EA0008093CF049093D00426960FB6F894DEBF8B
:103EB0000FBECDBFDF91CF91FF91EF91BF91AF9139
:103EC0009F918F917F916F915F914F913F912F9132
:103ED0001F91FF90EF90DF90CF900F900FBE0F904B
:103EE0001F9018958BEF810F8B3560F58091210520
:103EF00090E0C090D604D090D704E090D804F09021
:103F0000D904880F991FFC01E35FFE4F4081518166
:103F100070E060E04C155D056E057F0598F44091FA
:103F2000DA045091DB0470E060E0C0903705D09077
:103F30003805E0903905F0903A05C416D506E60636
:103F4000F70698F115501B3510F421112BC0409144
:103F5000D6045091D7046091D8047091D904E091AF
:103F60002105F0E0EE0FFF1FE35FFE4F808191819E
:103F7000B0E0A0E084179507A607B70798F48091F2
:103F8000DA049091DB044091AE045091AF0460914B
:103F9000B0047091B104B0E0A0E0481759076A0777
:103FA0007B07E0F01092CB043FCF835F9E4FFC0174
:103FB000208131818091CB048F5F8093CB048091ED
:103FC000CB048217130609F008F42ECF8091DE048B
:103FD00081112ACF84E08093DE0426CF8091CB0428
:103FE0008F5F8093CB0420CF8091CA04833009F087
:103FF0002DCF8091C2049091C304A091C404B091CC
:10400000C5040097A105B04899F08091C204909131
:10401000C304A091C404B091C5040197A109B109DA
:104020008093C2049093C304A093C404B093C504C6
:104030008091C70481110ACF20914105222309F400
:104040004BC04091C2045091C3046091C40470916C
:10405000C5048091AA049091AB04A091AC04B091E6
:10406000AD0484179507A607B70734F080E00E94D7
:10407000E2082091CC04DACE8BEF810F8B3560F50E
:104080008091210590E0C090D604D090D704E090B4
:10409000D804F090D904880F991FFC01E35FFE4F0C
:1040A0004081518170E060E04C155D056E057F0533
:1040B00098F44091DA045091DB0470E060E0C09025
:1040C0003B05D0903C05E0903D05F0903E05C416C0
:1040D000D506E606F70698F115501B3510F42111A8
:1040E0002BC04091D6045091D7046091D8047091B0
:1040F000D904E0912105F0E0EE0FFF1FE35FFE4FD2
:1041000080819181B0E0A0E084179507A607B707EA
:1041100098F48091DA049091DB044091B2045091BC
:10412000B3046091B4047091B504B0E0A0E0481706
:1041300059076A077B07E0F01092CC049ACF835F9F
:104140009E4FFC01208131818091CC048F5F809350
:10415000CC048091CC048217130609F008F489CFAF
:104160008091DE04811185CF84E08093DE0481CFCD
:104170008091CC048F5F8093CC047BCFE2ECF5E0A0
:104180001382128288EE93E0A0E0B0E084839583EE
:10419000A683B78327E631E03183208325EC30E026
:1041A0003587248724EC30E03787268720EC30E001
:1041B000318B208B21EC30E0338B228B22EC30E0F2
:1041C000358B248B26EC30E0378B268B118E128EAC
:1041D000138E148EEFE5F6E01382128284839583AA
:1041E000A683B78389E791E091838083ABE6B6E04D
:1041F00085E58C931296FC93EE9311970895CF93D7
:10420000DF93CDB7DEB7A1970FB6F894DEBF0FBE30
:10421000CDBF789484B5826084BD84B5816084BD4F
:1042200085B5826085BD85B5816085BD80916E0054
:10423000816080936E001092810080918100826085
:1042400080938100809181008160809381008091C2
:1042500080008160809380008091B10084608093B1
:10426000B1008091B00081608093B00080917A00AD
:10427000846080937A0080917A00826080937A00D3
:1042800080917A00816080937A0080917A008068C2
:1042900080937A001092C10062E08FE00E945C037C
:1042A00062E08EE00E945C03E7E0F3E084E791E0E7
:1042B000DF019C011D9221503040E1F7E091D205D1
:1042C000F091D30582E08083E091CE05F091CF0597
:1042D0001082E091D005F091D10581E080831092A9
:1042E000DA05E091D605F091D70586E08083E0916C
:1042F000D405F091D505808180618083E091D4055B
:10430000F091D505808188608083E091D405F0919B
:10431000D505808180688083E091D405F091D50532
:1043200080818F7D808382EC95E00E94BC0287EDC6
:1043300091E00E941F0E61E083E00E945C0361E057
:1043400084E00E945C0361E087E00E945C0361E01E
:1043500088E00E945C0360E085E00E945C0361E00D
:1043600086E00E945C0360E08AE00E945C0360E0FB
:104370008BE00E945C0380E00E94CF1481E00E94E9
:10438000CF14E3EAF4E088E7DF011D928A95E9F7AC
:1043900051E2E52E55E0F52E10E000E0C8010E9444
:1043A000452DF70181937F010F5F1F4F0F341105DA
:1043B000A9F70E94A60190916F05891709F49FC182
:1043C00080E00E94151081E00E94151080E00E949C
:1043D000ED0781E00E94ED07E1E2F5E090E080E08A
:1043E0002CE332E054E04081442309F4F1C143302E
:1043F00009F4EEC1478D442309F4C2C1289FD001BE
:10440000299FB00D1124AD55BB4F5F968D909D90A7
:10441000AD90BC9092971396CD90DD90ED90FC906E
:1044200016978C149D04AE04BF040CF4A9C1939696
:104430003C93B796019709F0A0C161E082E00E9429
:104440005C0360E082E00E942E0310929D051092B2
:104450009C051092BF051092BE050E941D0581EBC0
:1044600091E0909300038093FF0282EB91E09093A0
:10447000FE028093FD0260E880E00E94C9066AE0C7
:1044800070E080E090E00E94E20360E070E08AE784
:1044900094E40E94410B80EC9CEFABE9B1E0809387
:1044A0006E0690936F06A0937006B093710660E05D
:1044B00070E08AEF93E40E94410B8CE08093B80097
:1044C00064E670E080E090E00E94E20310E070E0BB
:1044D00060E0812F0E94FF061F5F1031C1F70E942C
:1044E000350A7E01E8E1EE0EF11C0E9414046333EC
:1044F00071058105910508F480C08FE00E940503D5
:104500006C01AA24A394892B09F4A12C8EE00E94AB
:1045100005038C0199249394892B09F4912C83E051
:10452000B82E97E4892E65E070E080E090E00E946C
:10453000AB1480927C0080917A00806480937A0032
:1045400080917A0086FDFCCF90917800809179006F
:10455000892798278927892B09F044C1BA94B1107B
:10456000E2CF80910201811106C0CD2821F085E2C1
:1045700092E00E941F0E80910101811106C0012B63
:1045800021F080E192E00E941F0E809100018823BB
:1045900011F40C94952BB1100DC00E94140460937B
:1045A000020370930303809304039093050381E057
:1045B00080930103809101038823C9F00E941404B1
:1045C000009102031091030320910403309105032D
:1045D000601B710B820B930B613D77408105910548
:1045E00030F08DED91E00E941F0E10920103A09219
:1045F000020190920101B092000180918904811121
:1046000009C069E871E08BE195E00E94AE1081E09D
:104610008093890480918104811109C069E871E067
:104620008BE794E00E94AE1081E080938104712CAE
:10463000222423940DE517E2BCE33B2E82EC95E0A7
:104640000E941202892B09F414C582EC95E00E94A5
:10465000F001D82E3AE0831719F04DE08413DCC442
:1046600040911F055091200560911B0570911C051C
:1046700082EC95E00E94B4010E941B0EC0901F05C1
:10468000D0902005C114D10409F4E7C0A5E2AA2EF8
:10469000A1E0BA2E912CD5016D917D915D01CE01E5
:1046A00001960E94AE104D815E8180911F05909110
:1046B00020058417950788F080911B0590911C05B3
:1046C000009759F069817A816115710531F00E9476
:1046D000703188248394892B09F0812CCE010196B6
:1046E0000E94690F811081C09394BBE19B12D3CFCC
:1046F0007110BCC08CE492E00E941F0EAEC021E29B
:10470000E22E25E0F22E10E000E03CE3D32E42E062
:10471000C42EBB24B394D70111968C91813021F122
:10472000D0F08F3F41F4D09EF001D19EF00D1124C6
:10473000ED55FB4FB3AE81508E3F18F0802F0E9495
:104740001510B7E2EB0EF11C0130110509F43ECE55
:1047500001E010E0E0CFD09EF001D19EF00D1124D9
:10476000ED55FB4FC3AEE7CFD09EF001D19EF00DCB
:104770001124ED55FB4F83AFDECF81E090E033CEC7
:1047800040A14423C1F0289FD001299FB00D1124DE
:10479000AD55BB4F5F968D909D90AD90BC9092971C
:1047A0001796CD90DD90ED90FC901A97C814D9041F
:1047B000EA04FB0454F4289FD001299FB00D112472
:1047C000AD55BB4F93961C9234CE93965C9331CEED
:1047D000289FD001299FB00D1124AD55BB4F949651
:1047E0003C9327CEBB24B394BCCEEFEFE90DEA3166
:1047F00008F03CC0F0E0E150FC4D0C94642F5326CF
:10480000E4263924442457248E24A524DA24ED24D4
:104810002625642500251325A025C5251924202437
:104820002F26EA250C2671246A249027A927D2274F
:10483000FC2783EA91E00E940E0E0E941B0E07C027
:10484000F0E0E0E0099582EC95E00E94BC0282E590
:1048500092E00E941F0E7724739450E040E069E8D4
:1048600071E08BE195E00E948310E8CE0E94C318AE
:10487000EECF8CE392E00E941F0E209206030E946E
:10488000C31810920603E3CF70E060E0CE014C96AF
:104890000E949D118C8D9D8DAE8DBF8D83309105B5
:1048A000A105B10509F480E00E94C70FD0CF70E0E8
:1048B00060E0CE014C960E949D118C8D9D8DAE8D39
:1048C000BF8D83309105A105B10509F480E00E94F8
:1048D000020DBDCF0E94A60180936F050E94C40CFB
:1048E000B6CFB701CE014C960E949D118C8D9D8D47
:1048F000AE8DBF8D488D598D6A8D7B8D833091052E
:10490000A105B10541F480E00E94E50C488D598D68
:104910006A8D7B8D81E00E94E50C99CFB701CE01B5
:104920004C960E949D118C8D9D8DAE8DBF8D688D96
:1049300083309105A105B10529F480E00E94F50CB2
:10494000688D81E00E94F50C82CFB701CE014C96B4
:104950000E949D118C8D9D8DAE8DBF8D488D598D82
:104960006A8D7B8D83309105A105B10559F481E0F5
:10497000452B462B472B09F480E08093DC04809381
:104980003F0565CF21E0452B462B472B09F420E05E
:1049900090E0389EF001399EF00D1124ED55FB4F4B
:1049A00021AF189FF001199FF00D1124EF5DFA4F10
:1049B000268F4DCF70E060E0CE014C960E949D1195
:1049C0008C8D9D8DAE8DBF8D83309105A105B10578
:1049D00009F480E00E94C5073ACF70E060E0CE01A4
:1049E0004C960E949D118C8D9D8DAE8DBF8D833018
:1049F0009105A105B10509F480E00E949D0727CF2C
:104A000070E060E0CE014C960E949D118C8D9D8DD2
:104A1000AE8DBF8D83309105A105B10509F480E00D
:104A20000E946E0714CF70E060E0CE014C960E94A9
:104A30009D118C8D9D8DAE8DBF8D83309105A1050F
:104A4000B10509F480E00E943F0701CFB701CE0114
:104A50004C960E949D118C8D9D8DAE8DBF8D488D85
:104A6000598D6A8D7B8D83309105A105B10589F43F
:104A700040932F05509330056093310570933205B4
:104A80004093AE045093AF046093B0047093B104AC
:104A9000DECE90E0189FF001199FF00D1124EF5D1C
:104AA000FA4F46875787608B718B389E9001399EED
:104AB000300D11242D553B4FD9011B964D935D931D
:104AC0006D937C931E97C3CEB701CE014C960E9486
:104AD0009D118C8D9D8DAE8DBF8D488D598D6A8DAC
:104AE0007B8D83309105A105B10589F44093330591
:104AF0005093340560933505709336054093B204A6
:104B00005093B3046093B4047093B504A0CE90E0C6
:104B1000189FF001199FF00D1124EF5DFA4F428BA1
:104B2000538B648B758B389E9001399E300D112408
:104B30002D553B4FF9014787508B618B728B87CE88
:104B4000B701CE014C960E949D118C8D9D8DAE8D2E
:104B5000BF8D488D598D6A8D7B8D83309105A10560
:104B6000B10549F4409337055093380560933905F2
:104B700070933A056CCE189FF0011124EF5DFA4F47
:104B8000468B578B608F718F62CEB701CE014C96EA
:104B90000E949D118C8D9D8DAE8DBF8D488D598D40
:104BA0006A8D7B8D83309105A105B10549F4409351
:104BB0003B0550933C0560933D0570933E0547CE01
:104BC000189FF0011124EF5DFA4F428F538F648FCD
:104BD000758F3DCE8FE30E94710F181619060CF0E9
:104BE00036CE70E060E0CE014C960E949D118C8D17
:104BF0009D8DAE8DBF8DAC01BD0143505109610942
:104C00007109423051056105710508F480E00E9488
:104C100076090E94A20E1BCE8FE30E94710F181618
:104C200019060CF014CE70E060E0CE014C960E94A4
:104C30009D118C8D9D8DAE8DBF8DAC01BD014350FE
:104C4000510961097109423051056105710520F46E
:104C500080E00E94550F81E00E94550FF8CD8FE350
:104C60000E94710F181619060CF0F1CD70E060E08B
:104C7000CE014C960E949D118C8D9D8DAE8DBF8D69
:104C800084309105A105B10539F480E00E94C40E7D
:104C900081E00E94C40EDBCD83309105A105B105F2
:104CA000C1F780E0F6CF8DE30E94710F1816190648
:104CB0000CF0CDCDBC016F5F7F4F6C157D0508F00A
:104CC000C6CD40911F0550912005CE0101960E944E
:104CD000C310BE016F5F7F4F8BE195E00E948E0F86
:104CE000CE0101960E94690F69E871E0CE010F962E
:104CF0000E94AE106EE871E080911B0590911C053A
:104D00000E94DD2B009709F45AC0BC01CE01019628
:104D10000E94AE10BE016F5F7F4FCE010F960E94C2
:104D20008E0FCE0101960E94690FCE010F960E9450
:104D30005010962E6EE871E090E080E00E94DD2B2E
:104D40006C01990C990CB12CC114D104C1F1B601BC
:104D5000CE0101960E94AE10BE016F5F7F4FCE0163
:104D60000F960E948E0FCE0101960E94690FCE0110
:104D70000F960E945010A62E6EE871E090E080E041
:104D80000E94DD2B6C016A2D70E090E080E00E94B3
:104D9000252C20E030E04FE753E40E94192E20E05C
:104DA00030EF4FE755E40E94842C0E948B2E892D12
:104DB0008B0D0E94FF06B394F4E0BF12C5CFCE0165
:104DC0000F960E94690F43CD8FE30E94710F181652
:104DD00019060CF03CCD8090910490909204A09024
:104DE0009304B0909404A5019401C501B4010E94FC
:104DF0001E2F882319F08EEB91E01DCD2401350183
:104E0000E89477F82FEF3FEF4FE75FE7C301B20178
:104E10000E941E2F81110DC02FEF3FEF4FE75FE77C
:104E2000C301B2010E941E2C18161CF482EC91E002
:104E300002CD2FEF3FEF4FE75FE4C501B4010E94C1
:104E4000192F18161CF486EC91E0F5CC2FEF3FEFEC
:104E50004FE75FECC501B4010E941E2C87FDF3CF24
:104E600020E030E0A901C501B4010E941E2C87FF9B
:104E700009C06DE282EC95E00E945402B7FAB0944A
:104E8000B7F8B0942AE037ED43EA5BE3C501B4011B
:104E90000E94AD2D2B013C010E94922E4B015C0122
:104EA0000E94232C9B01AC01C301B2010E94AC2DD6
:104EB0002B013C014AE0C501B4010E942B0E6EE2B9
:104EC00082EC95E00E94540220E030E040E251E4A0
:104ED000C301B2010E94842C2B013C010E94922E3E
:104EE0004B01B12CA12C4AE0C501B4010E942B0E4C
:104EF000C501B4010E94232C9B01AC01C301B20186
:104F00000E94AC2D20E030E040E251E40E94842C6D
:104F10000E94922E90E080E04AE00E942B0E8DCC01
:104F200061E0CE0101960E942011882309F48FCC04
:104F30008981809FC0011124895F9C4FFC01E65A42
:104F4000FF4F108231961082845A9F4FDC011C92D1
:104F50007ECC64E0CE0101960E942011882309F4E2
:104F600076CCE981E09FF0011124DF01AD59BC4FFF
:104F70006C916A3008F06BCC4F8158858D819E8191
:104F800029E0269FE00DF11D1124E95FFC4F2B81E4
:104F90003C813183208393838283558344836F5F75
:104FA0006C9355CC61E0CE0101960E9420118823BC
:104FB00009F44DCC89819A819927089FF001099FB6
:104FC000F00D1124E95FFC4FDF01A65ABF4F1C9280
:104FD00012963C9120E0321731F01086178216822B
:104FE0002F5F3996F8CF089FF001099FF00D11242B
:104FF000EE59FC4F20822BCC61E0CE0101960E943D
:105000002011882309F423CCE981E09FF0011124C9
:10501000EE59FC4F10821BCC082E000C990B0E94FD
:105020004E31892B09F40ACBD9821A82C0901F0510
:10503000D09020053FEFC31AD30AB6018BE195E06B
:105040000E945B10882309F4F9CA20911B05309156
:105050001C0580911F0590912005BE016F5F7F4F59
:10506000820F931F0E946931D0922005C0921F05C4
:10507000E5CA8091C704823009F08EC08091030593
:10508000823009F089C00E94140400919F0410919D
:10509000A0042091A1043091A204601B710B820B2B
:1050A000930B693873418105910508F475C08091AF
:1050B000030190910401892B31F00E94350A9093ED
:1050C000040180930301CE0101960E949803CE0152
:1050D00001960E94BE0440E06CECCE0101960E9455
:1050E0008A0440E06EEBCE0101960E948A048E0194
:1050F000015F1F4F4801F8E0CF2ED12CB12CAA241C
:10510000A394CE0101960E9437048111BA28AA0CFB
:1051100051E0C51AD108A9F7D801BD928D01EA1650
:10512000FB0649F768E0C4010E9420049F898913A7
:1051300017C00F851889CE0101960E94BE0440E079
:105140006CECCE0101960E948A0441E064E4CE0139
:1051500001960E948A040D34BEEF1B0709F0BFC000
:1051600020E030E04EEF52EC209391043093920413
:10517000409393045093940441E050E05093040111
:10518000409303010E94140460939F047093A00451
:105190008093A1049093A20480919E04882309F433
:1051A00040C180914005882309F43BC18091670587
:1051B000882309F436C10E94140400919A041091C6
:1051C0009B0420919C0430919D04601B710B820B09
:1051D000930B653671058105910508F422C10E9483
:1051E000140460939A0470939B0480939C0490939E
:1051F0009D040E9471098091C2049091C304A09102
:10520000C404B091C50440902705509028056090D3
:10521000290570902A0584199509A609B709181659
:1052200019061A061B060CF075C08091C2049091F5
:10523000C304A091C404B091C5049C01AD0124191C
:1052400035094609570929013A018091FE049091D8
:10525000FF04A0910005B091010580904E0590904B
:105260004F05A0905005B090510588199909AA09D9
:10527000BB09181619061A061B060CF058C08091B7
:10528000FE049091FF04A0910005B09101059C01DE
:10529000AD01281939094A095B0949015A010E94DF
:1052A0006D0984189508A608B70880929604909214
:1052B0009704A0929804B09299043FE18316910458
:1052C000A104B1040CF440C080919504813009F42C
:1052D0004BC0833009F083C0BB24B39446C0B801EF
:1052E000685F7F4F77FF02C0615F7F4FE4E0759595
:1052F0006795EA95E1F7072E000C880B990B0E9441
:10530000252C60939104709392048093930490935E
:10531000940438CF8091C2049091C304A091C40436
:10532000B091C504481A590A6A0A7B0A8ECF809147
:10533000FE049091FF04A0910005B0910105881A28
:10534000990AAA0ABB0AABCF42EE84164FEF940625
:10535000A406B4060CF043C0B090950451E0B51615
:1053600021F083E0B8123BC0B12CCB2CD12C9CE3B4
:10537000B99E800111240D551B4FD80195968C9133
:1053800081112DC08DE592E00E94A1026B2D70E08D
:1053900090E080E04AE00E942B0E85E592E00E94BA
:1053A000A102609196047091970480919804909165
:1053B00099040E94900E81E0F80185A38601000FF8
:1053C000111F000F111F055A1E4F61E0D8018C916B
:1053D0000E942E0361E0F80182810E942E036091F9
:1053E000960470919704809198049091990497FF86
:1053F00007C090958095709561957F4F8F4F9F4F17
:105400000E94232C20E030E040EC51E40E941E2C4E
:105410000BE511E0812C912C54014CE3542E87FDB7
:1054200092C081E2C82E85E0D82E10E000E09CE317
:10543000392E22E0222ED6018C91882309F43BC11B
:10544000833009F438C16AE070E080E090E00E94A7
:10545000AB140E947109309EC001319E900D112441
:10546000FC01ED55FB4FF9A3E8A346A457A460A89F
:1054700071A8878C90A0A1A0B2A00E946D090E9483
:1054800014046419750986099709D60193964D90FD
:105490005D906D907C909697461657066806790643
:1054A00008F009C1E8A1F9A185A1882331F084A100
:1054B000811103C0802F0E942F0D309EC001319EAC
:1054C000900D11249C012D553B4F3901D901959622
:1054D0008C919597811105C094968C91882309F43D
:1054E000C1C0309EC001319E900D1124FC01ED55CC
:1054F000FB4F3F0184A1813009F0DDC0802F0E9465
:105500002F0DD6015F968C91882359F0F30183818A
:105510009481A581B68188169906AA06BB060CF06F
:10552000E6C0D60190968C918111EBC0309EF001BF
:10553000319EF00D1124ED55FB4F13A2D9C0812CE3
:10554000912C54018394782C6401589CF001599C4F
:10555000F00D1124ED55FB4F85A18823E9F183A1BE
:10556000813009F047C091ADD8018C9112966C90B2
:105570009923D9F160E00E942E0361E0862D0E94FC
:105580002E03872D0E94180965E070E080E090E00E
:105590000E94AB145C9CF0015D9CF00D1124ED5554
:1055A000FB4F15A2872D0E94500D83E992E00E94C7
:1055B000A1024AE0C501B4010E942B0E8BE892E0E3
:1055C0000E94A102609196047091970480919804C2
:1055D000909199040E94900E0C5F1F4F8A94892825
:1055E0008A288B2809F0ABCF1CCF61E00E942E03E4
:1055F00060E0C4CF83A1833079F791ADF801808159
:105600006280992339F161E00E942E0360E0862DCB
:105610000E942E03872D0E94180965E070E080E04B
:1056200090E00E94AB145C9CF0015D9CF00D112495
:10563000ED55FB4F15A2872D0E94500D88E792E093
:105640000E94A1024AE0C501B4010E942B0E80E72E
:1056500092E0B6CF60E00E942E0361E0D8CF01E077
:1056600010E0E9CE86EA92E00E941F0ED301DB969D
:105670008C91DB97811103C0E5E0DB96EC93802FE2
:105680000E942F0D80919E04882369F161E083E0E0
:105690000E942E0361E084E00E942E0361E087E017
:1056A0000E942E0361E088E00E942E0381E0809337
:1056B000C7048093030537E2C30ED11C01301105E6
:1056C00071F60E94641280E090E0892B11F40C9432
:1056D00075220E941E02882311F40C9471220E94EC
:1056E00000000C947122802F0E94E208E4CF23A2D4
:1056F000309EF001319EF00D1124ED55FB4F24A298
:10570000DACF309EF001319EF00D1124ED55FB4FA4
:1057100087819085A185B28588159905AA05BB0565
:105720000CF404CF24E023A3E3CFBB2011F40C94AA
:10573000DA22109201030E941404009102031091D6
:1057400003032091040330910503601B710B820B4E
:10575000930B603D77408105910510F00C94F72282
:1057600089EF91E00E941F0E0C94DA221F93FC0136
:1057700099278827BC01E89411911032E9F3193078
:1057800010F01E30C8F31B3251F01D3249F46894FA
:1057900006C00E94092C610F711D811D911D119180
:1057A00010531A30B0F33EF4909580957095619542
:1057B0007F4F8F4F9F4F1F91089542E756E00E9401
:1057C000E22B0895FA01A191B081009719F4109786
:1057D000E1F0CD01DC01CD010D90002011F4C001FC
:1057E00013C0FB012191222319F02015D9F7F3CF23
:1057F000FB012191201519F41E92119606C0222357
:10580000C1F70D900020A1F7D001FA01A193B08358
:105810000895592F482F372F262F660F771F881F7F
:10582000991F660F771F881F991F620F731F841FB0
:10583000951F660F771F881F991F08950E94602C7F
:1058400008F481E00895E89409C097FB3EF4909530
:105850008095709561957F4F8F4F9F4F9923A9F049
:10586000F92F96E9BB279395F695879577956795D8
:10587000B795F111F8CFFAF4BB0F11F460FF1BC01C
:105880006F5F7F4F8F4F9F4F16C0882311F096E9AF
:1058900011C0772321F09EE8872F762F05C066235D
:1058A00071F096E8862F70E060E02AF09A95660F16
:1058B000771F881FDAF7880F9695879597F90895CF
:1058C000990F0008550FAA0BE0E8FEEF1616170611
:1058D000E807F907C0F012161306E407F50798F079
:1058E000621B730B840B950B39F40A2661F0232B92
:1058F000242B252B21F408950A2609F4A140A6950E
:105900008FEF811D811D08950E94972C0C940B2D03
:105910000E94FD2C38F00E94042D20F0952311F0F8
:105920000C94F42C0C94FA2C11240C943F2D0E940E
:105930001C2D70F3959FC1F3950F50E0551F629F8A
:10594000F001729FBB27F00DB11D639FAA27F00DD8
:10595000B11DAA1F649F6627B00DA11D661F829FFF
:105960002227B00DA11D621F739FB00DA11D621FE4
:10597000839FA00D611D221F749F3327A00D611D01
:10598000231F849F600D211D822F762F6A2F1124E3
:105990009F5750409AF0F1F088234AF0EE0FFF1F16
:1059A000BB1F661F771F881F91505040A9F79E3F6D
:1059B000510580F00C94F42C0C943F2D5F3FE4F3E0
:1059C000983ED4F3869577956795B795F795E795C3
:1059D0009F5FC1F7FE2B880F911D9695879597F9CC
:1059E000089599278827089597F99F6780E870E0C0
:1059F00060E008959FEF80EC089500240A94161645
:105A0000170618060906089500240A9412161306AC
:105A1000140605060895092E0394000C11F488233A
:105A200052F0BB0F40F4BF2B11F460FF04C06F5F56
:105A30007F4F8F4F9F4F089557FD9058440F551F2C
:105A400059F05F3F71F04795880F97FB991F61F000
:105A50009F3F79F087950895121613061406551F77
:105A6000F2CF4695F1DF08C0161617061806991FE3
:105A7000F1CF86957105610508940895E894BB27D8
:105A800066277727CB0197F90895F999FECF92BD44
:105A900081BDF89A992780B50895262FF999FECFF0
:105AA0001FBA92BD81BD20BD0FB6F894FA9AF99A3B
:105AB0000FBE019608950E949D2DA59F900DB49F45
:105AC000900DA49F800D911D112408952F923F9257
:105AD0004F925F926F927F928F929F92AF92BF92FE
